{
  "contractName": "SmartFoodDelivery",
  "abi": [
    {
      "constant": true,
      "inputs": [
        {
          "name": "",
          "type": "address"
        },
        {
          "name": "",
          "type": "uint256"
        }
      ],
      "name": "fooditems",
      "outputs": [
        {
          "name": "description",
          "type": "string"
        },
        {
          "name": "orderId",
          "type": "uint256"
        },
        {
          "name": "isPreparedDeliveryStarted",
          "type": "bool"
        },
        {
          "name": "isDeliveredandPaid",
          "type": "bool"
        },
        {
          "name": "isCancelled",
          "type": "bool"
        },
        {
          "name": "customer",
          "type": "address"
        }
      ],
      "payable": false,
      "stateMutability": "view",
      "type": "function"
    },
    {
      "inputs": [],
      "payable": false,
      "stateMutability": "nonpayable",
      "type": "constructor"
    },
    {
      "constant": false,
      "inputs": [
        {
          "name": "description",
          "type": "string"
        }
      ],
      "name": "placeMyOrder",
      "outputs": [],
      "payable": false,
      "stateMutability": "nonpayable",
      "type": "function"
    },
    {
      "constant": true,
      "inputs": [],
      "name": "returnMyLastOrderNumber",
      "outputs": [
        {
          "name": "",
          "type": "string"
        }
      ],
      "payable": false,
      "stateMutability": "view",
      "type": "function"
    },
    {
      "constant": false,
      "inputs": [
        {
          "name": "orderNumber",
          "type": "uint256"
        }
      ],
      "name": "signMyDeliverdOrder",
      "outputs": [],
      "payable": false,
      "stateMutability": "nonpayable",
      "type": "function"
    },
    {
      "constant": false,
      "inputs": [
        {
          "name": "orderNumber",
          "type": "uint256"
        }
      ],
      "name": "cancelMyOrder",
      "outputs": [],
      "payable": false,
      "stateMutability": "nonpayable",
      "type": "function"
    },
    {
      "constant": false,
      "inputs": [
        {
          "name": "customer",
          "type": "address"
        },
        {
          "name": "orderNumber",
          "type": "uint256"
        }
      ],
      "name": "startDelivery",
      "outputs": [],
      "payable": false,
      "stateMutability": "nonpayable",
      "type": "function"
    }
  ],
  "bytecode": "0x608060405234801561001057600080fd5b50336000806101000a81548173ffffffffffffffffffffffffffffffffffffffff021916908373ffffffffffffffffffffffffffffffffffffffff160217905550610f1b806100606000396000f300608060405260043610610078576000357c0100000000000000000000000000000000000000000000000000000000900463ffffffff168063485a37781461007d578063502b505d1461010d57806358e5c8cf1461013a57806372469e2a14610187578063c032e28d146101f0578063c0b8969314610311575b600080fd5b34801561008957600080fd5b5061009261033e565b6040518080602001828103825283818151815260200191508051906020019080838360005b838110156100d25780820151818401526020810190506100b7565b50505050905090810190601f1680156100ff5780820380516001836020036101000a031916815260200191505b509250505060405180910390f35b34801561011957600080fd5b50610138600480360381019080803590602001909291905050506104e2565b005b34801561014657600080fd5b50610185600480360381019080803573ffffffffffffffffffffffffffffffffffffffff169060200190929190803590602001909291905050506105dc565b005b34801561019357600080fd5b506101ee600480360381019080803590602001908201803590602001908080601f016020809104026020016040519081016040528093929190818152602001838380828437820191505050505050919291929050505061072f565b005b3480156101fc57600080fd5b5061023b600480360381019080803573ffffffffffffffffffffffffffffffffffffffff16906020019092919080359060200190929190505050610954565b60405180806020018781526020018615151515815260200185151515158152602001841515151581526020018373ffffffffffffffffffffffffffffffffffffffff1673ffffffffffffffffffffffffffffffffffffffff168152602001828103825288818151815260200191508051906020019080838360005b838110156102d15780820151818401526020810190506102b6565b50505050905090810190601f1680156102fe5780820380516001836020036101000a031916815260200191505b5097505050505050505060405180910390f35b34801561031d57600080fd5b5061033c60048036038101908080359060200190929190505050610a8b565b005b60606000600260003373ffffffffffffffffffffffffffffffffffffffff1673ffffffffffffffffffffffffffffffffffffffff16815260200190815260200160002080549050905060008114156103f457606060405190810160405280602181526020017f596f752068617665206e6f7420706c6163656420616e206f726465722079657481526020017f2e0000000000000000000000000000000000000000000000000000000000000081525091506104de565b6104db610468610463600260003373ffffffffffffffffffffffffffffffffffffffff1673ffffffffffffffffffffffffffffffffffffffff1681526020019081526020016000206001850381548110151561044c57fe5b906000526020600020906003020160010154610b85565b610ce2565b6104cd606060405190810160405280602481526020017f4f72646572206e756d62657220666f7220796f7572206c617374206f7264657281526020017f2069732000000000000000000000000000000000000000000000000000000000815250610ce2565b610d1090919063ffffffff16565b91505b5090565b60011515600260003373ffffffffffffffffffffffffffffffffffffffff1673ffffffffffffffffffffffffffffffffffffffff1681526020019081526020016000208281548110151561053257fe5b906000526020600020906003020160020160009054906101000a900460ff16151514156105d4576001600260003373ffffffffffffffffffffffffffffffffffffffff1673ffffffffffffffffffffffffffffffffffffffff168152602001908152602001600020828154811015156105a757fe5b906000526020600020906003020160020160016101000a81548160ff0219169083151502179055506105d9565b600080fd5b50565b6000809054906101000a900473ffffffffffffffffffffffffffffffffffffffff1673ffffffffffffffffffffffffffffffffffffffff163373ffffffffffffffffffffffffffffffffffffffff161480156106a6575060001515600260008473ffffffffffffffffffffffffffffffffffffffff1673ffffffffffffffffffffffffffffffffffffffff1681526020019081526020016000208281548110151561068357fe5b906000526020600020906003020160020160029054906101000a900460ff161515145b15610726576001600260008473ffffffffffffffffffffffffffffffffffffffff1673ffffffffffffffffffffffffffffffffffffffff168152602001908152602001600020828154811015156106f957fe5b906000526020600020906003020160020160006101000a81548160ff02191690831515021790555061072b565b600080fd5b5050565b610737610ddd565b60c060405190810160405280838152602001600160003373ffffffffffffffffffffffffffffffffffffffff1673ffffffffffffffffffffffffffffffffffffffff1681526020019081526020016000205481526020016000151581526020016000151581526020016000151581526020013373ffffffffffffffffffffffffffffffffffffffff168152509050600260003373ffffffffffffffffffffffffffffffffffffffff1673ffffffffffffffffffffffffffffffffffffffff1681526020019081526020016000208190806001815401808255809150509060018203906000526020600020906003020160009091929091909150600082015181600001908051906020019061084c929190610e30565b506020820151816001015560408201518160020160006101000a81548160ff02191690831515021790555060608201518160020160016101000a81548160ff02191690831515021790555060808201518160020160026101000a81548160ff02191690831515021790555060a08201518160020160036101000a81548173ffffffffffffffffffffffffffffffffffffffff021916908373ffffffffffffffffffffffffffffffffffffffff160217905550505050600160003373ffffffffffffffffffffffffffffffffffffffff1673ffffffffffffffffffffffffffffffffffffffff168152602001908152602001600020600081548092919060010191905055505050565b60026020528160005260406000208181548110151561096f57fe5b906000526020600020906003020160009150915050806000018054600181600116156101000203166002900480601f016020809104026020016040519081016040528092919081815260200182805460018160011615610100020316600290048015610a1c5780601f106109f157610100808354040283529160200191610a1c565b820191906000526020600020905b8154815290600101906020018083116109ff57829003601f168201915b5050505050908060010154908060020160009054906101000a900460ff16908060020160019054906101000a900460ff16908060020160029054906101000a900460ff16908060020160039054906101000a900473ffffffffffffffffffffffffffffffffffffffff16905086565b60001515600260003373ffffffffffffffffffffffffffffffffffffffff1673ffffffffffffffffffffffffffffffffffffffff16815260200190815260200160002082815481101515610adb57fe5b906000526020600020906003020160020160009054906101000a900460ff1615151415610b7d576001600260003373ffffffffffffffffffffffffffffffffffffffff1673ffffffffffffffffffffffffffffffffffffffff16815260200190815260200160002082815481101515610b5057fe5b906000526020600020906003020160020160026101000a81548160ff021916908315150217905550610b82565b600080fd5b50565b60606000806060600080861415610bd3576040805190810160405280600181526020017f30000000000000000000000000000000000000000000000000000000000000008152509450610cd9565b6001860395508593505b600084141515610c03578280600101935050600a84811515610bfb57fe5b049350610bdd565b826040519080825280601f01601f191660200182016040528015610c365781602001602082028038833980820191505090505b5091506001830390505b600086141515610cd557600a86811515610c5657fe5b066030017f010000000000000000000000000000000000000000000000000000000000000002828280600190039350815181101515610c9157fe5b9060200101907effffffffffffffffffffffffffffffffffffffffffffffffffffffffffffff1916908160001a905350600a86811515610ccd57fe5b049550610c40565b8194505b50505050919050565b610cea610eb0565b600060208301905060408051908101604052808451815260200182815250915050919050565b606080600083600001518560000151016040519080825280601f01601f191660200182016040528015610d525781602001602082028038833980820191505090505b509150602082019050610d6e8186602001518760000151610d92565b610d878560000151820185602001518660000151610d92565b819250505092915050565b60005b602082101515610dba5782518452602084019350602083019250602082039150610d95565b6001826020036101000a0390508019835116818551168181178652505050505050565b60c0604051908101604052806060815260200160008152602001600015158152602001600015158152602001600015158152602001600073ffffffffffffffffffffffffffffffffffffffff1681525090565b828054600181600116156101000203166002900490600052602060002090601f016020900481019282601f10610e7157805160ff1916838001178555610e9f565b82800160010185558215610e9f579182015b82811115610e9e578251825591602001919060010190610e83565b5b509050610eac9190610eca565b5090565b604080519081016040528060008152602001600081525090565b610eec91905b80821115610ee8576000816000905550600101610ed0565b5090565b905600a165627a7a72305820dbd1ed9f637b9fd43aeb065ebcdc0c194175cf7735c2f3daf423be9b2f8e70fc0029",
  "source": "pragma solidity ^0.4.23;\n\nimport \"./strings.sol\";\n\ncontract SmartFoodDelivery {\n    using strings for *;\n    address foodCompany;\n    mapping(address => uint) orderCounter;\n    \n    struct FoodItem {\n        string description;\n        uint orderId;\n        bool isPreparedDeliveryStarted;\n        bool isDeliveredandPaid;\n        bool isCancelled;\n        address customer;\n    }\n\n    mapping(address => FoodItem[]) public fooditems;\n\n    function SmartFoodDelivery() {\n        foodCompany = msg.sender;\n    }\n\n    function placeMyOrder(string description) public {\n        FoodItem memory newOrderItem = FoodItem({\n            description: description,\n            orderId: orderCounter[msg.sender],\n            isPreparedDeliveryStarted: false,\n            isDeliveredandPaid: false,\n            isCancelled: false,\n            customer: msg.sender\n        });\n        \n        fooditems[msg.sender].push(newOrderItem);\n        orderCounter[msg.sender]++;\n\n    }\n    \n    function returnMyLastOrderNumber() public view returns (string) {\n        uint allOrders = fooditems[msg.sender].length;\n        if (allOrders == 0) {\n            return \"You have not placed an order yet.\";\n        }\n        return \"Order number for your last order is \".toSlice().concat(uint2str(fooditems[msg.sender][allOrders-1].orderId).toSlice());\n    }\n\n    function signMyDeliverdOrder(uint orderNumber) public {\n        if (fooditems[msg.sender][orderNumber].isPreparedDeliveryStarted==true) {\n            fooditems[msg.sender][orderNumber].isDeliveredandPaid = true;\n        }\n        else revert();\n    }\n    \n    function cancelMyOrder(uint orderNumber) public {\n        if (fooditems[msg.sender][orderNumber].isPreparedDeliveryStarted==false) {\n            fooditems[msg.sender][orderNumber].isCancelled = true;\n        }\n        else revert();\n    }\n\n    function startDelivery(address customer, uint orderNumber) public {\n        if (msg.sender==foodCompany && fooditems[customer][orderNumber].isCancelled==false) {\n            fooditems[customer][orderNumber].isPreparedDeliveryStarted = true;\n        }\n        else revert();\n    }\n\n    function uint2str(uint i) internal pure returns (string){\n        \n        if (i == 0) return \"0\";\n        i=i-1;\n        uint j = i;\n        uint length;\n        while (j != 0){\n            length++;\n            j /= 10;\n        }\n        bytes memory bstr = new bytes(length);\n        uint k = length - 1;\n        while (i != 0){\n            bstr[k--] = byte(48 + i % 10);\n            i /= 10;\n        }\n        return string(bstr);\n    }\n   \n}",
  "sourcePath": "/Users/theo/Projects/blockfellows/blockfellows-dev-challenges/challenge1/contracts/smartFoodDelivery.sol",
  "compiler": {
    "name": "solc",
    "version": "0.4.23+commit.124ca40d.Emscripten.clang"
  },
  "schemaVersion": "2.0.0",
  "updatedAt": "2018-06-27T05:42:25.314Z"
}